:020000040000FA
:04000000B5EF0EF05A
:1010000000961E441E361E3E16D8178C1EBE18F6BD
:101010001EEE1EE61EDE1ED61ECE1EC61E821E2A18
:101020001A54656D70657261747572613A202D2570
:101030006420430A0D0054656D70657261747572A9
:0B104000613A20256420430A0D0000E7
:10104C001EC036F01FC037F020C038F021C039F078
:10105C0022C03AF023C03BF024C03CF025C03DF048
:10106C003DAE02D0010E01D0000E346E356A345004
:10107C003510D8B410D03D1E3C1E3B1E3A1E391EF6
:10108C00381E371E366C000E3722382239223A228F
:10109C003B223C223D225DAE5E925DBE05D05D5092
:1010AC0008E15C04D8B005D0000E316E010E306E34
:1010BC0004D05CC030F05DC031F086C032F087C027
:1010CC0033F034503510D8A402D05EA403D03206CD
:1010DC00D8A03306000E3F6E1F0E3E6E000EA86F9A
:1010EC007AD03E06D8A03F063E50890FD96EDA6AF8
:1010FC0036C001F037C002F038C003F039C004F03C
:10110C003AC005F03BC006F03CC007F03DC008F00B
:10111C000A0E096E000E0A6E000E0B6E000E0C6E9F
:10112C00000E0D6E000E0E6E000E0F6E000E106E89
:10113C008DEC0AF001C026F002C027F003C028F0A5
:10114C0004C029F005C02AF006C02BF007C02CF013
:10115C0008C02DF026C013F028C014F0F8EC0DF0E8
:10116C001350300FDF6E3006D8A031063206D8A0EF
:10117C00330636C001F037C002F038C003F039C076
:10118C0004F03AC005F03BC006F03CC007F03DC08F
:10119C0008F00A0E096E000E0A6E000E0B6E000EA1
:1011AC000C6E000E0D6E000E0E6E000E0F6E000E0D
:1011BC00106EE9EC09F001C036F002C037F003C044
:1011CC0038F004C039F005C03AF006C03BF007C057
:1011DC003CF008C03DF03FBE1FD03F5003E13E0441
:1011EC00D8A01AD036503710381039103A103B109E
:1011FC003C103D10D8A475D731BE05D0315002E15A
:10120C003004D8B06ED733BE07D0335003E132046C
:10121C00D8A002D05EB265D734503510D8A402D015
:10122C005EA415D03E06D8A03F0634503510D8A485
:10123C0004D0000E2F6E2B0E03D0000E2F6E2D0E31
:10124C002E6E3E50890FD96EDA6A2EC0DFFF1CC09D
:10125C0012F01DC013F03E50890F146E32C015F001
:10126C0033C016F065EC0BF012C01CF013C01DF06F
:10127C0012004250D96EDA6ADFCFF6FF100EF76E0D
:10128C00F86A0800F550250AD8A486D04250D96EC9
:10129C00DA6ADF2A000E0001876F000E866F86C0A7
:1012AC005EF087C05FF05C685D684250D96EDA6AA8
:1012BC00DFCFF6FF100EF76EF86A0800F550640ADF
:1012CC00D8B40DD04250D96EDA6ADFCFF6FF100ECB
:1012DC00F76EF86A0800F550690AD8A434D0425069
:1012EC00D96EDA6ADF2A4350D96EDA6ADF50DF2A08
:1012FC00DF2AD96EDA6ADECF44F0DDCF45F0000E7E
:10130C0045BEFF0E466E476E486E496E4A6E4B6E7A
:10131C0040C01CF041C01DF044C01EF045C01FF081
:10132C0046C020F047C021F048C022F049C023F04D
:10133C004AC024F04BC025F026EC08F01CC040F04D
:10134C001DC041F012004250D96EDA6ADFCFF6FFB1
:10135C00100EF76EF86A0800F550250AD8A413D0C1
:10136C004250D96EDA6ADF2A000E046E250E036E27
:10137C0040C005F041C006F029EC0CF0000E416EA7
:10138C00010E406E12004250D96EDA6ADF2A000E4E
:10139C00416E000E406E12004250D96EDA6ADFCFF9
:1013AC00F6FF100EF76EF86A0800F550036E046A2B
:1013BC0040C005F041C006F029EC0CF04250D96E4B
:1013CC00DA6ADF2ADBD7000E126E10AE12D0101EB6
:1013DC000F1E0E1E0D1E0C1E0B1E0A1E096C000E7F
:1013EC000A220B220C220D220E220F221022010E99
:1013FC00126E08AE12D0081E071E061E051E041E15
:10140C00031E021E016C000E02220322042205227E
:10141C00062207220822010E121A20EE13F0070EE4
:10142C00DE6AE806FDE209500A100B100C100D10D4
:10143C000E100F101010D8B446D0010E116E0AD039
:10144C00D89009360A360B360C360D360E360F365A
:10145C001036112A10AEF4D7D89013361436153630
:10146C0016361736183619361A360950015C0A50DA
:10147C0002580B5003580C5004580D5005580E5080
:10148C0006580F50075810500858D8A011D00950C2
:10149C00015E0A50025A0B50035A0C50045A0D505C
:1014AC00055A0E50065A0F50075A1050085A1380FE
:1014BC00D89010320F320E320D320C320B320A32FF
:1014CC000932112EC9D71250D8B410D01A1E191EB9
:1014DC00181E171E161E151E141E136C000E142239
:1014EC00152216221722182219221A2213C001F0D3
:1014FC0014C002F015C003F016C004F017C005F0BC
:10150C0018C006F019C007F01AC008F01200000E3F
:10151C00126E08AE12D0081E071E061E051E041EF3
:10152C00031E021E016C000E02220322042205225D
:10153C00062207220822010E126E10AE10D0101EC9
:10154C000F1E0E1E0D1E0C1E0B1E0A1E096C000E0D
:10155C000A220B220C220D220E220F2210220950DD
:10156C000A100B100C100D100E100F101010D8B418
:10157C003CD0010E116E0AD0D89009360A360B36C3
:10158C000C360D360E360F361036112A10AEF4D737
:10159C000950015C0A5002580B5003580C50045867
:1015AC000D5005580E5006580F500758105008583B
:1015BC00D8A010D00950015E0A50025A0B50035AA1
:1015CC000C50045A0D50055A0E50065A0F50075A1B
:1015DC001050085AD89010320F320E320D320C3295
:1015EC000B320A320932112ED3D71250D8B410D084
:1015FC00081E071E061E051E041E031E021E016C7D
:10160C00000E0222032204220522062207220822AF
:10161C0001C001F002C002F003C003F004C004F0EA
:10162C0005C005F006C006F007C007F008C008F0BA
:10163C00120036EC0FF00009D8A40AD02AD07BECAB
:10164C000FF0120077EC0FF012006FEC0FF012009D
:10165C0072C00AF073C00BF001D809D00500FA6E05
:10166C006651FD6E6751FE6EFF6AFA501200026EF3
:10167C00036A0350000AD8A4E8D70250010AD8B470
:10168C00E4D7030AD8B4DBD7010AD8B4DBD7070AEE
:10169C00DCD783917DC0D9FF7EC0DAFF7D4B7E2BDA
:1016AC00DF507FEC0FF000017F07D8A080077F513F
:1016BC008011D8A402D0060E1200030E12005EA0F8
:1016CC0008D014C00CF012C00DF013C00EF0DEECFC
:1016DC000DF016BE05D015C01AF016C01BF004D0C4
:1016EC00000E1B6E000E1A6E000E196E000E186E98
:1016FC000CD0000E046E200E036E12C005F013C049
:10170C0006F029EC0CF0184A192A1A50185C1950DA
:10171C00800A176E1B50800A1758D8A0EAD75EB003
:10172C0008D014C00CF012C00DF013C00EF0DEEC9B
:10173C000DF014C001F093EC0EF01A500124126E4F
:10174C001B500220136E1200016E010E026E00017E
:10175C0083B53AD001C07CF08393838583910E0EC0
:10176C00816F010E7B6FF40E7A6F8387280E606F8A
:10177C001F0E616F000E6C6F000E6D6F280E626F86
:10178C001F0E636F000E6E6F000E6F6F280E646F6E
:10179C001F0E656F000E706F000E716F280E666F56
:1017AC001F0E676F000E726F000E736F240E686F42
:1017BC001F0E696F000E746F000E756FA0EC0FF0AA
:1017CC00E8EC0EF0000E026E025012008EEC0FF0E0
:1017DC007DC0D9FF7EC0DAFFDF6E7D4B7E2B7F078D
:1017EC00D8A080077F518011D8B404D086EC0FF0BC
:1017FC00050E1200838706D063EC0FF0120067EC25
:10180C000FF012006CC00AF06DC00BF001D809D0BB
:10181C000500FA6E6051FD6E6151FE6EFF6AFA5062
:10182C001200016E026A0250000AD8A4E8D70150D7
:10183C00010AD8B4E4D7030AD8B4DED7010AD8B465
:10184C00DBD7070ADCD705500610D8B404D00550F6
:10185C000610D8A404D003503CEC0FF0120020EE7C
:10186C0004F00550D9260650DA22DE50DE10D8B42A
:10187C0016D020EE04F00550D9260650DA2210EED0
:10188C0002F00550E1260650E222DE50E65CE650FE
:10189C00800A0B6EDE50800A0B58D8B0120020EE76
:1018AC0002F00550D9260650DA22DE2A000EDD227F
:1018BC00120083870AD073EC0FF012008CEC0FF03F
:1018CC00030E12006FEC0FF012006CC00AF06DC02A
:1018DC000BF001D809D00500FA6E6051FD6E615114
:1018EC00FE6EFF6AFA501200016E026A0250000A84
:1018FC00D8A4E8D70150010AD8B4E4D7030AD8B465
:10190C00DAD7010AD8B4D7D7070AD8B4D7D7DAD7D9
:10191C00056E01500210D8B415D00550020DF350CD
:10192C00600FD96EDA6A01C0DEFF02C0DDFF055020
:10193C00020DF3506C0FD96EDA6A03C0DEFF04C0DF
:10194C00DDFF12000550020DF350600FD96EDA6AFC
:10195C00280EDE6E1F0EDD6E0550020DF3506C0F5F
:10196C00D96EDA6A000EDE6E000EDD6E12000B6EA2
:10197C00000E0C6E0B50AAEC0BF00009D8B4FAD781
:10198C00A60E066E1C0E076E0C0E086E096AF4ECA1
:10199C000EF00A0E016E026A000E046E010E036E4A
:1019AC00CFEC0EF0000E066E000E076E000E086EE9
:1019BC00000E096EDCEC0EF05FEC0FF0A4EC0EF0F8
:1019CC00E806D8B4FBD70C501200A0EC0FF00001C5
:1019DC0083A107D036EC0FF00009D8B402D00F0E5B
:1019EC00816F8151020DF350010F046E04C0F6FF9C
:1019FC00100EF76EF86A0900F5CF05F00900F5CF67
:101A0C0006F001D809D00500FA6E0550FD6E06509F
:101A1C00FE6EFF6AFA5012000001816F1200839172
:101A2C00020E826F06D073EC0FF012006FEC0FF009
:101A3C00120070C00AF071C00BF001D809D005007B
:101A4C00FA6E6451FD6E6551FE6EFF6AFA5012001B
:101A5C00016E026A0250000AD8A4E8D70150020AAB
:101A6C00D8B4E1D7010AD8B4DED7E0D74EC050F0D5
:101A7C00000E0001856F000E846F0FD04CC040F03B
:101A8C004DC041F0500E426E4FC043F03FEC09F098
:101A9C004050000184274150852350C0F6FF100EA2
:101AAC00F76EF86A0800F5500009D8A4E7D784C08F
:101ABC004CF085C04DF0120020EE02F00A50D926F1
:101ACC000B50DA22DECF01F0DDCF02F00AC0D9FFD5
:101ADC000BC0DAFFDECF03F0DDCF04F0CFEC0EF05D
:101AEC00000E066E000E076E000E086E000E096EDC
:101AFC00F4EC0EF0020E1200080EB86E900EAB6EE7
:101B0C00240EAC6ECF0EAF6E000EB06E000E016EDA
:101B1C00000E026E55EC0FF0000E016E000E026E00
:101B2C0050EC0FF0000E016E000E026E5AEC0FF02E
:101B3C00000E0001886F1200000E8D6E000E8C6E70
:101B4C00000E896E000E8A6E000E8B6E070E966E5E
:101B5C0092689368BF0E946E95680F013B69240ED2
:101B6C003A6F3F0E396F070E3C6F2F0E386F000E19
:101B7C00616EF18E1200586E57C00AF05850BDECD1
:101B8C000CF0596E800E59640BD059500008596EE8
:101B9C00210E516E59C052F0536AC2EC0EF0120075
:101BAC00360E516E59C052F0536AC2EC0EF0120050
:101BBC00000E116E000E106E0BD00FC003F0046AF5
:101BCC000DC005F00EC006F029EC0CF0104A112ADD
:101BDC000C501024D96EDA6ADF500F6E0F50D8B447
:101BEC001200EBD714BE05D0145010E11304D8B07A
:101BFC000DD013C015F014C016F0151E161E154A84
:101C0C00162A15C013F016C014F0120013C013F0EE
:101C1C0014C014F01200076E010E086E000183B39D
:101C2C000ED08383000E086E0750D8B402D0010E7C
:101C3C0001D0020E816F9AEC0FF013EC0FF00850EC
:101C4C0012000AC001F00BC002F0000E046E010E6F
:101C5C00036ECFEC0EF0000E066E000E076E000E3B
:101C6C00086E000E096EF4EC0EF0040E12000AC0A1
:101C7C0001F00BC002F0000E046E020E036ECFECEE
:101C8C000EF0000E066E000E076E000E086E000EB3
:101C9C00096EF4EC0EF0020E12000AC001F00BC03B
:101CAC0002F0000E046E010E036ECFEC0EF0000E6F
:101CBC00066E000E076E000E086E000E096EF4EC38
:101CCC000EF0020E12000AC001F00BC002F0000E62
:101CDC00046E020E036ECFEC0EF0000E066E000EBC
:101CEC00076E000E086E000E096EF4EC0EF0040E7A
:101CFC0012000AEC0FF0000E576E4D0EC1EC0DF0F9
:101D0C00020E5B6E040E5A6EBA0EE82EFED75A2ED9
:101D1C00FCD75B2EFAD700D0EED701C003F001D070
:101D2C00012A0150D96EDA6ADF50D8A4F9D70350D2
:101D3C00015C016E026A01BE02061200010E016E08
:101D4C00000183B30AD083957C69A0EC0FF09CEC66
:101D5C000FF09EEC0FF082C001F00150120000EE6B
:101D6C0060F0490EEE6AE806FDE15F6A5E6A5D6A44
:101D7C005C6A00017FEF0EF0520E566E000E4C6E38
:101D8C00000E4D6E51C04EF0560E4F6E3CEC0DF0E9
:101D9C001200000183A7120001C07DF002C07EF08A
:101DAC0003C07FF004C080F08397120006C001F0DE
:101DBC0007C002F008C003F009C004F0020E8EEC5C
:101DCC000CF01200C6BA1200000EC76E080EC66EDA
:101DDC00000EC56E130EC86EC68A120006C001F046
:101DEC0007C002F008C003F009C004F0000E8EEC2E
:101DFC000CF01200000EC76E080EC66E000EC56EFB
:101E0C00130EC86EC69A120000EC0FF0A2EC0DF087
:101E1C0029EC0FF082EC0DF0120004D083EC0FF0E3
:101E2C00EBEC0CF083A31200F9D783817C517C2559
:101E3C007FEC0FF0030E12008381D8807C357FEC91
:101E4C000FF0050E1200620ED36E040ED26E000E51
:101E5C009B6E1200016E9EA8FED701C0ADFF120052
:101E6C00C5AC02D0010E1200000E1200026E025020
:101E7C0030EC0FF012008393000E826F0E0E1200E6
:101E8C00839190EC0FF0040E12008393000E826F7E
:101E9C000E0E120001C0ABF002C0ACF0120001C07B
:101EAC00ADF002C0AEF0120001C0A9F002C0AAF061
:101EBC001200000E11EC0EF0120089EC0FF0090E5E
:101ECC00120089EC0FF00A0E120086EC0FF0050ED2
:101EDC00120096EC0FF0000E120098EC0FF0010EB1
:101EEC00120098EC0FF0020E120098EC0FF0010E9D
:101EFC001200016E01C0C9FF12009EB61200FDD780
:101F0C00C59AC5881200C58AC58812009E86120023
:101F1C00C9501200C5861200050E1200010E1200E7
:101F2C00C5841200C5821200C58012009D96120055
:081F3C00C69A12009E961200E5
:020000040020DA
:08000000FFFFFFFFFFFFFFFF00
:020000040030CA
:0E000000FF281F3CFFBD81FF0FC00FE00F4027
:00000001FF
