:020000040000FA
:040000006BEF7FF033
:10FED60000019AEF7FF07AEC7FF073EC7FF012006E
:10FEE600620ED36E040ED26E000E9B6E1200000ED2
:10FEF6008D6E000E8C6E000E896E000E8A6E000EE0
:10FF06008B6E070E966E926893689468FE0E956ED9
:10FF1600FE0E0F013B6FFC0E3A6F3E0E396F070E59
:10FF26003C6F2F0E386F010E616EF19E12006EEC63
:10FF36007FF0010E026E81B0A3EF7FF0A6EF7FF097
:10FF4600010EA7EF7FF0000E036E0350D8A4AEEFAC
:10FF56007FF0B0EF7FF0DBEF7FF00204D8A4B6EFBE
:10FF66007FF0B8EF7FF0DBEF7FF00D0E016EFC0E39
:10FF7600E82EFED7012EFCD70350D8A4C5EF7FF09C
:10FF8600C7EF7FF09EEF7FF08CB0CCEF7FF0CFEF26
:10FF96007FF0010ED0EF7FF0000EFF0A016E8C504D
:10FFA6000118FE0B01188C6E000E026E9EEF7FF09C
:10FFB6000304D8A4E1EF7FF0E3EF7FF09EEF7FF03C
:10FFC6000250D8A4E9EF7FF0EBEF7FF09EEF7FF0D1
:10FFD6000D0E016EFC0EE82EFED7012EFCD7030493
:10FFE600D8A4F8EF7FF0FAEF7FF0FCEF7FF09CEFFC
:0AFFF6007FF09EEF7FF000EF00F0B7
:020000040020DA
:08000000FFFFFFFFFFFFFFFF00
:020000040030CA
:0E000000FF281E3CFFBD81FF0FC00FE00F4028
:00000001FF
