:020000040000FA
:040000003AEF00F0E3
:100008001282FACF0CF0FBCF0DF0F2AC0EEF00F03D
:1000180010EF00F034EF00F09DA015EF00F017EF9F
:1000280000F022EF00F09EA01CEF00F01EEF00F0A1
:1000380022EF00F03CEC00F034EF00F0A3A027EF33
:1000480000F029EF00F034EF00F0A4A02EEF00F04C
:1000580030EF00F034EF00F0BAEC00F034EF00F0CD
:100068000DC0FBFF0CC0FAFF12921100FEEF00F06A
:100078009EA041EF00F043EF00F07DEF00F0112A61
:100088001150095CD8A04BEF00F04DEF00F050EF95
:1000980000F08C8051EF00F08C901150085CD8A0D3
:1000A80058EF00F05AEF00F05DEF00F08C825EEF41
:1000B80000F08C921150075CD8A065EF00F067EF54
:1000C80000F06AEF00F08C846BEF00F08C94640E03
:1000D8001118D8A472EF00F074EF00F076EF00F07A
:1000E800000E116E9E90FF0E0B6E9B0E0A6ED2ECE8
:1000F80000F01200000E8D6E000E8C6E000E896EE0
:10010800000E8A6E000E8B6E070E966E92689368CC
:100118009468F80E956EF80E0F013B6FFC0E3A6F5F
:100128003F0E396F070E3C6F2F0E386F000E616E51
:10013800F18E1200000ECC6ECF68370ECE6ECECF89
:1001480005F0CFCF06F09E909D80000E0E6E000E3B
:100158000F6E15EC01F0A490A380420E0E6E020EF5
:100168000F6E1AEC01F0030ECD6E1200A490015030
:100178000210D8B4C2EF00F0C4EF00F0D1EF00F0E5
:1001880002D8D1EF00F00500FA6E0150FD6E025062
:10019800FE6EF850FF6EFA5012001200CDA4D7EF91
:1001A80000F0D9EF00F0E1EF00F0CD900B50CF6EEA
:1001B8000AC0CEFFCD80E5EF00F00B50CF6E0AC02D
:1001C800CEFF1200F5EC00F0F28EF28C320E0E6EBD
:1001D800190E0F6E4B0E06EC01F0EAEF00F03AEF45
:1001E80000F01FEC01F07EEC00F00EEC01F09EEC4C
:1001F80000F01200116A12901292000EF86E0001BF
:10020800E6EF00F0106E10C009F00EC008F00FC045
:1002180007F01200620ED36E040ED26E000E9B6EB3
:1002280012000EC003F00FC004F012000EC001F05F
:0C0238000FC002F01200D09E1200120055
:020000040020DA
:08000000FFFFFFFFFFFFFFFF00
:020000040030CA
:0E000000FF281E3CFFBD81FF0FC00FE00F4028
:00000001FF
