:020000040000FA
:04000000E9EF1DF017
:1010000000456C20766F6C74616A652065733A20C8
:10101000256620760A0D00494E46004E414E006975
:0B1020006E66006E616E006C660000E2
:10102C00000E0001806F000E7F6F57C091F058C00A
:10103C0092F059C093F05AC094F094BF2AEF08F084
:10104C0028EF08F040EF08F0000E806F010E7F6F64
:10105C0091C001F092C002F093C003F094C004F070
:10106C009EEC1DF001C091F002C092F003C093F011
:10107C0004C094F0000E0001986F000E976FD1C061
:10108C0083F0D2C084F07F518011D8A450EF08F0C7
:10109C0052EF08F059EF08F0D5A557EF08F059EFCB
:1010AC0008F073EF08F07F518011D8A460EF08F0BE
:1010BC0062EF08F068EF08F0000E666F2B0E656F9C
:1010CC006CEF08F0000E666F2D0E656F65C000F1B9
:1010DC00974B982B8307D8A0840791C001F092C03E
:1010EC0002F093C003F094C004F057EC19F0010423
:1010FC000210D8A484EF08F086EF08F0DDEF08F0BA
:10110C00BF0E0001606FFF0E616F5B50626F636B0F
:10111C00605162276151632363510AE11A0E625DCB
:10112C00D8A09BEF08F09EEF08F0010E9FEF08F09F
:10113C00000E676F686B67516811D8B4A8EF08F0A0
:10114C00AAEF08F0B8EF08F0000E9725016E010E1B
:10115C009821026E170E036E100E046ECFEC1CF06D
:10116C00C4EF08F0000E9725016E010E9821026E57
:10117C001F0E036E100E046ECFEC1CF00001FD0E62
:10118C008327FF0E842355C013F056C014F0000EB5
:10119C00156E010E166E83C017F084C018F0B0ECFB
:1011AC001AF013C055F014C056F068EF0EF091C051
:1011BC0001F092C002F093C003F094C004F057EC1D
:1011CC0019F001500210D8A4EEEF08F0F0EF08F07F
:1011DC0047EF09F0BF0E0001606FFF0E616F5B50AF
:1011EC00626F636B605162276151632363510AE143
:1011FC001A0E625DD8A005EF09F008EF09F0010E98
:10120C0009EF09F0000E696F6A6B69516A11D8B465
:10121C0012EF09F014EF09F022EF09F0000E9725F8
:10122C00016E010E9821026E1B0E036E100E046EE1
:10123C00CFEC1CF02EEF09F0000E9725016E010E7D
:10124C009821026E230E036E100E046ECFEC1CF070
:10125C000001FD0E8327FF0E842355C013F056C0EA
:10126C0014F0000E156E010E166E83C017F084C0BC
:10127C0018F0B0EC1AF013C055F014C056F068EF2B
:10128C000EF0000E0001996F000E9A6F800E9B6F8E
:10129C003F0E9C6F000E966F000E956F91C001F083
:1012AC0092C002F093C003F094C004F0000E056EDF
:1012BC00000E066E000E076E000E086ECDEC1BF0D5
:1012CC00D8B06BEF09F06DEF09F0F0EF09F08CEF8F
:1012DC0009F099C00FF09AC010F09BC011F09CC09F
:1012EC0012F0000E136E000E146E200E156E410ED1
:1012FC00166EC9EC10F00FC099F010C09AF011C026
:10130C009BF012C09CF00001954B962B91C028F0DD
:10131C0092C029F093C02AF094C02BF0000E136EEB
:10132C00000E146E200E156E410E166E99C00FF045
:10133C009AC010F09BC011F09CC012F0C9EC10F0D8
:10134C000FC02CF010C02DF011C02EF012C02FF0D9
:10135C00D5EC18F0D8B0B5EF09F0B7EF09F06FEF96
:10136C0009F0D7EF09F099C028F09AC029F09BC07A
:10137C002AF09CC02BF0000E2C6E000E2D6E200E51
:10138C002E6E410E2F6EDEEC12F028C099F029C0A3
:10139C009AF02AC09BF02BC09CF000019507D8A0B6
:1013AC00960791C028F092C029F093C02AF094C0FF
:1013BC002BF099C02CF09AC02DF09BC02EF09CC045
:1013CC002FF0D5EC18F0D8A0EEEF09F0F0EF09F003
:1013DC00B9EF09F05BC007F0086A9FEC1CF00750EE
:1013EC000001866F86C085F0670E8619D8A401EFC0
:1013FC000AF003EF0AF029EF0AF0D351D411D8A464
:10140C000AEF0AF00CEF0AF010EF0AF0000ED46F9E
:10141C00010ED36FD4BF1DEF0AF0D45106E1D305F2
:10142C00D8B01BEF0AF01DEF0AF023EF0AF0000E04
:10143C00826F060E816F32EF0AF0D3C081F0D4C0F8
:10144C0082F032EF0AF0D4BF2EEF0AF030EF0AF040
:10145C001DEF0AF023EF0AF0670E8619D8A439EFB6
:10146C000AF03BEF0AF06AEF0AF096AF49EF0AF088
:10147C00FC0E955DFF0E9659D8A047EF0AF049EF88
:10148C000AF068EF0AF0FF0E606FFF0E616F81C00B
:10149C0062F082C063F06051622761516323955101
:1014AC00625D6351800A646F9651800A6459D8A0BA
:1014BC0062EF0AF064EF0AF068EF0AF0660E856FCF
:1014CC006AEF0AF0650E856F81C077F082C078F004
:1014DC00670E8619D8A475EF0AF077EF0AF087EF3C
:1014EC000AF0660E8519D8A47EEF0AF080EF0AF098
:1014FC0089EF0AF096BF87EF0AF085EF0AF089EFC3
:10150C000AF0774B782B660E8519D8A490EF0AF069
:10151C0092EF0AF0B2EF0AF096BF99EF0AF097EF4C
:10152C000AF0A5EF0AF0000E996F000E9A6F800E6C
:10153C009B6F3F0E9C6F000E966F000E956F670EA3
:10154C008619D8B4ACEF0AF0AEEF0AF0B2EF0AF09D
:10155C009551772796517823000E906F000E8F6F60
:10156C0091C087F092C088F093C089F094C08AF043
:10157C0099C079F09AC07AF09BC07BF09CC07CF04B
:10158C0043EF0BF087C028F088C029F089C02AF0FF
:10159C008AC02BF099C02CF09AC02DF09BC02EF075
:1015AC009CC02FF0DEEC12F028C041F029C042F0B4
:1015BC002AC043F02BC044F06FEC16F041C08BF006
:1015CC0042C08CF043C08DF044C08EF08BC001F053
:1015DC008CC002F08DC003F08EC004F052EC18F0F9
:1015EC0001C07DF002C07EF087C028F088C029F0D1
:1015FC0089C02AF08AC02BF099C013F09AC014F05D
:10160C009BC015F09CC016F08BC00FF08CC010F076
:10161C008DC011F08EC012F0C9EC10F00FC02CF080
:10162C0010C02DF011C02EF012C02FF0FEEC1CF0EB
:10163C0028C087F029C088F02AC089F02BC08AF016
:10164C0099C028F09AC029F09BC02AF09CC02BF0BE
:10165C00000E2C6E000E2D6E200E2E6E410E2F6E77
:10166C00DEEC12F028C099F029C09AF02AC09BF049
:10167C002BC09CF000018F4B902B77518F5D9051BC
:10168C00800A606F7851800A6059D8A050EF0BF037
:10169C0052EF0BF0C8EF0AF099C00FF09AC010F09F
:1016AC009BC011F09CC012F0000E136E000E146E55
:1016BC00A00E156E400E166EC9EC10F00FC08BF01C
:1016CC0010C08CF011C08DF012C08EF087C028F0C5
:1016DC0088C029F089C02AF08AC02BF08BC02CF06E
:1016EC008CC02DF08DC02EF08EC02FF0D5EC18F0E4
:1016FC00D8B083EF0BF085EF0BF090EF0BF0000EF2
:10170C0000018B6F000E8C6F000E8D6F000E8E6FB4
:10171C00B9EF0BF087C001F088C002F089C003F06C
:10172C008AC004F08BC005F08CC006F08DC007F0A9
:10173C008EC008F0CDEC1BF0D8A0A7EF0BF0A9EFF2
:10174C000BF0B9EF0BF000017DB1AFEF0BF0B1EF87
:10175C000BF0B9EF0BF0000E8B6F000E8C6F000EC0
:10176C008D6F000E8E6F91C001F092C002F093C08D
:10177C0003F094C004F08BC005F08CC006F08DC053
:10178C0007F08EC008F069EC0EF001C087F002C0C3
:10179C0088F003C089F004C08AF087C028F088C0A4
:1017AC0029F089C02AF08AC02BF0000E136E000EAF
:1017BC00146E200E156E410E166E79C00FF07AC0A5
:1017CC0010F07BC011F07CC012F0C9EC10F00FC00F
:1017DC002CF010C02DF011C02EF012C02FF0D5EC53
:1017EC0018F0D8A0FCEF0BF0FEEF0BF027EF0CF08D
:1017FC000001954B962B79C00FF07AC010F07BC08E
:10180C0011F07CC012F0000E136E000E146E200E40
:10181C00156E410E166EC9EC10F00FC079F010C0A9
:10182C007AF011C07BF012C07CF0660E00018519B5
:10183C00D8A423EF0CF025EF0CF027EF0CF0774B2E
:10184C00782B79C099F07AC09AF07BC09BF07CC061
:10185C009CF0650E00018519D8B437EF0CF039EF08
:10186C000CF03FEF0CF095C075F096C076F043EF9E
:10187C000CF0000E766F000E756F000E746F000E7C
:10188C00736F000E726F000E716F000E906F000E72
:10189C008F6F3EEF0DF087C028F088C029F089C00B
:1018AC002AF08AC02BF099C02CF09AC02DF09BC066
:1018BC002EF09CC02FF0DEEC12F028C041F029C0B5
:1018CC0042F02AC043F02BC044F06FEC16F041C03C
:1018DC008BF042C08CF043C08DF044C08EF08BC0B6
:1018EC0001F08CC002F08DC003F08EC004F052ECFD
:1018FC0018F001C07DF002C07EF00001D5B989EF6F
:10190C000CF08BEF0CF0A8EF0CF07D517E11D8A4ED
:10191C0092EF0CF094EF0CF0A8EF0CF0670E861918
:10192C00D8A49BEF0CF09DEF0CF0A8EF0CF076BF59
:10193C00A4EF0CF0A2EF0CF0A8EF0CF0714B722B93
:10194C00F2EF0CF073517411D8A4AFEF0CF0B1EFAF
:10195C000CF0DBEF0CF076BFB8EF0CF0B6EF0CF040
:10196C00DBEF0CF0000E9725D96E010E9821DA6E84
:10197C002E0EDF6E974B982B8307D8A08407000E92
:10198C00746F010E736FDBEF0CF0000E9725D96EA0
:10199C00010E9821DA6E300EDF6E974B982B830771
:1019AC00D8A084077107D8A0720771517211D8A4FE
:1019BC00E2EF0CF0E4EF0CF0CBEF0CF0000E9725FF
:1019CC00D96E010E9821DA6E7D51300FDF6E974B78
:1019DC00982B8307D8A0840787C028F088C029F0EB
:1019EC0089C02AF08AC02BF099C013F09AC014F069
:1019FC009BC015F09CC016F08BC00FF08CC010F083
:101A0C008DC011F08EC012F0C9EC10F00FC02CF08C
:101A1C0010C02DF011C02EF012C02FF0FEEC1CF0F7
:101A2C0028C087F029C088F02AC089F02BC08AF022
:101A3C0099C028F09AC029F09BC02AF09CC02BF0CA
:101A4C00000E2C6E000E2D6E200E2E6E410E2F6E83
:101A5C00DEEC12F028C099F029C09AF02AC09BF055
:101A6C002BC09CF000017507D8A076078F4B902BEC
:101A7C0077518F5D9051800A606F7851800A605960
:101A8C00D8B04BEF0DF04DEF0DF05BEF0DF098BFB4
:101A9C0059EF0DF0985109E14B0E975DD8A059EF15
:101AAC000DF05BEF0DF051EF0CF073517411D8A4E5
:101ABC0062EF0DF064EF0DF075EF0DF0D5A969EF45
:101ACC000DF06BEF0DF075EF0DF0000E9725D96E44
:101ADC00010E9821DA6E2E0EDF6E974B982B000EAE
:101AEC009725D96E010E9821DA6E000EDF6E650E09
:101AFC008519D8A484EF0DF086EF0DF056EF0EF09B
:101B0C00000E906F4F0E8F6F000E8F25D96E010E49
:101B1C009021DA6E000EDF6E000E806F000E7F6F6C
:101B2C0096BF9DEF0DF09BEF0DF0A5EF0DF0000EA5
:101B3C00806F010E7F6F956D961FD8B0962B000E9F
:101B4C00826F020E816FD6EF0DF08F07D8A0900731
:101B5C00000E8F25D96E010E9021DA6E95C001F022
:101B6C0096C002F0000E046E0A0E036E75EC1BF0AC
:101B7C000150300FDF6E95C001F096C002F0000EE0
:101B8C00046E0A0E036E13EC1BF001C095F002C03C
:101B9C0096F000018107D8A082078307D8A084079C
:101BAC0095519611D8A4DDEF0DF0DFEF0DF0ABEFF2
:101BBC000DF082BFECEF0DF0825106E18105D8B03B
:101BCC00EAEF0DF0ECEF0DF0ABEF0DF08F07D8A0B6
:101BDC0090077F518011D8A4F6EF0DF0F8EF0DF0BF
:101BEC00FEEF0DF0000E6C6F2B0E6B6F02EF0EF014
:101BFC00000E6C6F2D0E6B6F000E8F25D96E010EC3
:101C0C009021DA6E6BC0DFFF8307D8A084078F07A3
:101C1C00D8A09007BF0E606FFF0E616F5B50626FB4
:101C2C00636B605162276151632363510AE11A0EA1
:101C3C00625DD8A024EF0EF027EF0EF0010E28EF16
:101C4C000EF0000E6F6F706B6F517011D8A431EFE6
:101C5C000EF033EF0EF039EF0EF0000E6E6F650ED6
:101C6C006D6F3DEF0EF0000E6E6F450E6D6F000E3A
:101C7C008F25D96E010E9021DA6E6DC0DFFF8307C0
:101C8C00D8A08407000E9725016E010E9821026ED4
:101C9C00000E8F25036E010E9021046ECFEC1CF00C
:101CAC0055C013F056C014F0000E156E010E166ED2
:101CBC0083C017F084C018F0B0EC1AF013C055F0C4
:101CCC0014C056F012000450800B0D6E0450042406
:101CDC000F6E03AE74EF0EF076EF0EF077EF0EF0A2
:101CEC000F800F50D8B47DEF0EF07FEF0EF094EF15
:101CFC000EF00F28D8A485EF0EF087EF0EF08FEFC3
:101D0C000EF0000E016E000E026E000E036E000E41
:101D1C00046E038E000E046E9CEF0EF0000E016E2E
:101D2C00000E026E000E036E000E046E0850800B47
:101D3C000E6E0D500E18D8B4A6EF0EF0A8EF0EF0E4
:101D4C00A9EF0EF00D8C085008240E6E07AEB1EF03
:101D5C000EF0B3EF0EF0B4EF0EF00E800E50D8B4C0
:101D6C00BAEF0EF0BCEF0EF0D1EF0EF00E28D8A4A7
:101D7C00C2EF0EF0C4EF0EF0CCEF0EF0000E056EBD
:101D8C00000E066E000E076E000E086E078E000E1B
:101D9C00086ED9EF0EF0000E056E000E066E000EEA
:101DAC00076E000E086E0F500E5CD8B0E0EF0EF010
:101DBC00E2EF0EF009EF0FF00DACE7EF0EF0E9EFEC
:101DCC000EF0EBEF0EF0800E0D1A0FC010F00EC0DF
:101DDC000FF010C00EF001C010F005C001F010C0E3
:101DEC0005F002C010F006C002F010C006F003C0EF
:101DFC0010F007C003F010C007F004C010F008C0CA
:101E0C0004F010C008F0000E106E0F500EC009F058
:101E1C000A6A095E000E0A5A0ABE1EEF0FF00A503B
:101E2C0009E11A0E095CD8A01EEF0FF020EF0FF09D
:101E3C0057EF0FF00150021003100410D8A429EF33
:101E4C000FF02CEF0FF0010E2DEF0FF0000E106EB7
:101E5C00000E016E000E026E000E036E000E046E7C
:101E6C000EC00FF060EF0FF010A03FEF0FF041EF3E
:101E7C000FF047EF0FF0D89010300109106E49EFBA
:101E8C000FF0D890103201A04EEF0FF050EF0FF082
:101E9C0051EF0FF0108E043404320332023201324F
:101EAC000F2A0E500F5CD8A05EEF0FF060EF0FF012
:101EBC003AEF0FF00DBC65EF0FF067EF0FF0A7EFE7
:101ECC000FF00F50D8A46DEF0FF06FEF0FF079EF0C
:101EDC000FF0000E016E000E026E000E036E000E6F
:101EEC00046EC8EF10F00550012606500222075070
:101EFC0003220850042204A086EF0FF088EF0FF0A5
:101F0C0034EF10F010A08DEF0FF08FEF0FF095EF76
:101F1C000FF0D89010300109106E97EF0FF0D89099
:101F2C00103201A09CEF0FF09EEF0FF09FEF0FF01F
:101F3C00108E043404320332023201320F2A34EF91
:101F4C0010F00550015C065002580750035804501D
:101F5C00800A096E0850800A0958D8B0B8EF0FF003
:101F6C00BAEF0FF0E5EF0FF00150055C096E02506F
:101F7C0006580A6E035007580B6E045008580C6E26
:101F8C00FF0E0924016EFF0E0A20026EFF0E0B20BD
:101F9C00036EFF0E0C20046E800E0D1A106C105088
:101FAC00D8A4DBEF0FF0DDEF0FF0EDEF0FF0010E2B
:101FBC000126000E022203220422EDEF0FF0055041
:101FCC00015E0650025A0750035A0850045A015039
:101FDC00021003100410D8A4F6EF0FF0F8EF0FF076
:101FEC002DEF10F01050D8A4FEEF0FF000EF10F012
:101FFC002DEF10F0000E016E000E026E000E036E3F
:10200C00000E046EC8EF10F0D8900136023603367D
:10201C00043610AE14EF10F016EF10F017EF10F0AE
:10202C00018010A01CEF10F01EEF10F022EF10F04A
:10203C00D880103624EF10F0D89010360F50D8B44A
:10204C002AEF10F02CEF10F02DEF10F00F0603AE6E
:10205C0032EF10F034EF10F00AEF10F0000E0E6EAD
:10206C0010AE3BEF10F03DEF10F055EF10F010C03C
:10207C0009F07F0E0916D8B446EF10F048EF10F0B7
:10208C004CEF10F0010E0E6E55EF10F001A051EF59
:10209C0010F053EF10F055EF10F048EF10F00E5019
:1020AC00D8B45BEF10F05DEF10F088EF10F0010E7C
:1020BC000126000E02220322042204A068EF10F075
:1020CC006AEF10F088EF10F001C009F002C00AF0BE
:1020DC0003C00BF004C00CF00C340C320B320A327F
:1020EC00093209C001F00AC002F00BC003F00CC0A9
:1020FC0004F00F28D8B485EF10F087EF10F088EFBC
:10210C0010F00F2A0F28D8B48EEF10F090EF10F0CB
:10211C0098EF10F00F50D8A496EF10F098EF10F045
:10212C00AAEF10F0000E016E000E026E000E036E90
:10213C00000E046E0F50D8A4A6EF10F0A8EF10F00C
:10214C00AAEF10F0000E0D6E0FA0AFEF10F0B1EF74
:10215C0010F0B4EF10F0038EB5EF10F0039ED89092
:10216C000F30046E0DAEBDEF10F0BFEF10F0C0EFEE
:10217C0010F0048E01C001F002C002F003C003F0A5
:10218C0004C004F012001250800B1B6E125012246B
:10219C00216E11AED4EF10F0D6EF10F0D7EF10F097
:1021AC0021802150D8B4DDEF10F0DFEF10F0F2EF0A
:1021BC0010F02128D8A4E5EF10F0E7EF10F0EFEFC6
:1021CC0010F0000E0F6E000E106E000E116E000E51
:1021DC00126E118EFAEF10F0000E0F6E000E106ED4
:1021EC00000E116E000E126E1650800B1B1A16503C
:1021FC001624206E15AE05EF11F007EF11F008EF65
:10220C0011F020802050D8B40EEF11F010EF11F027
:10221C0023EF11F02028D8A416EF11F018EF11F0CD
:10222C0020EF11F0000E136E000E146E000E156EE2
:10223C00000E166E158E2BEF11F0000E136E000EA5
:10224C00146E000E156E000E166E2050D8B431EFC1
:10225C0011F033EF11F03BEF11F02150D8A439EF0E
:10226C0011F03BEF11F045EF11F0000E0F6E000E68
:10227C00106E000E116E000E126EDDEF12F0155086
:10228C000F02F3CF26F0F4CF27F026501C6E1D6AF8
:10229C001E6A1F6A2750226E236A246A256A14500C
:1022AC001002F3CF26F0F4CF27F026501C26000E98
:1022BC001D221E221F2227502226000E23222422FA
:1022CC00252213501102F3CF26F0F4CF27F026501D
:1022DC001C26000E1D221E221F2227502226000E15
:1022EC002322242225221EC01FF01DC01EF01CC05C
:1022FC001DF01C6A13501002F3CF26F0F4CF27F018
:10230C0026501C2627501D22000E1E22000E1F22B6
:10231C0014500F02F3CF26F0F4CF27F026501C26D2
:10232C0027501D22000E1E22000E1F221EC01FF061
:10233C001DC01EF01CC01DF01C6A13500F02F3CF01
:10234C0026F0F4CF27F026501C2627501D22000E15
:10235C001E22000E1F2215501002F3CF26F0F4CFD0
:10236C0027F02650222627502322000E2422000E6E
:10237C00252214501102F3CF26F0F4CF27F026506B
:10238C00222627502322000E2422000E252215502F
:10239C001102F3CF26F0F4CF27F02650176E2750FA
:1023AC00186E196A1A6A19C01AF018C019F017C0F9
:1023BC0018F0176A1750222618502322195024227D
:1023CC001A5025221CC017F01DC018F01EC019F0A1
:1023DC001FC01AF0190EF8EF11F0D8901A321932FA
:1023EC0018321732E82EF3EF11F01750222618503E
:1023FC002322195024221A5025221EC01FF01DC062
:10240C001EF01CC01DF01C6A205021C017F0186A69
:10241C001726000E1822820E1724266EFF0E182087
:10242C00276E2EEF12F0D89022362336243625361E
:10243C001FAE23EF12F025EF12F026EF12F02280E0
:10244C00D8901C361D361E361F362606D8A02706F9
:10245C0024AE33EF12F035EF12F019EF12F0000E3C
:10246C00206E1FAE3CEF12F03EEF12F062EF12F056
:10247C00FF0E1C14176EFF0E1D14186EFF0E1E148B
:10248C00196E7F0E1F141A6E1750181019101A108F
:10249C00D8B453EF12F055EF12F059EF12F0010EC1
:1024AC00206E62EF12F022A05EEF12F060EF12F0DD
:1024BC0062EF12F055EF12F02050D8B468EF12F022
:1024CC006AEF12F08EEF12F0010E2226000E23227C
:1024DC002422252225A075EF12F077EF12F08EEF53
:1024EC0012F022C017F023C018F024C019F025C038
:1024FC001AF01A341A3219321832173217C022F065
:10250C0018C023F019C024F01AC025F0264A272A37
:10251C0027BE99EF12F0275008E12628D8A099EF92
:10252C0012F09BEF12F0A5EF12F0000E226E000ECF
:10253C00236E800E246E7F0E256ED3EF12F027BE15
:10254C00B2EF12F0275006E12604D8B0B0EF12F02B
:10255C00B2EF12F0BEEF12F0000E226E000E236EE0
:10256C00000E246E000E256E000E1B6ED3EF12F0C3
:10257C0026C021F0FF0E2216FF0E23167F0E241606
:10258C00000E251621A0CDEF12F0CFEF12F0D0EFF8
:10259C0012F0248ED8902130256E1B50251222C0AB
:1025AC000FF023C010F024C011F025C012F012005F
:1025BC002B50800B386E2B502B243F6E2AAEE9EF3C
:1025CC0012F0EBEF12F0ECEF12F03F803F50D8B46A
:1025DC00F2EF12F0F4EF12F009EF13F03F28D8A449
:1025EC00FAEF12F0FCEF12F004EF13F0000E286E6D
:1025FC00000E296E000E2A6E000E2B6E2A8E000E17
:10260C002B6E11EF13F0000E286E000E296E000ECB
:10261C002A6E000E2B6E2F50800B381A2F502F2441
:10262C00406E2EAE1CEF13F01EEF13F01FEF13F0E5
:10263C0040804050D8B425EF13F027EF13F03CEF57
:10264C0013F04028D8A42DEF13F02FEF13F037EF31
:10265C0013F0000E2C6E000E2D6E000E2E6E000E62
:10266C002F6E2E8E000E2F6E44EF13F0000E2C6E7C
:10267C00000E2D6E000E2E6E000E2F6E2C502D1097
:10268C002E102F10D8A44DEF13F04FEF13F067EF6F
:10269C0013F0000E286E000E296E000E2A6E000E2E
:1026AC002B6E800E2A127F0E2B1238502B1228C044
:1026BC0028F029C029F02AC02AF02BC02BF0AAEF51
:1026CC0014F03F50D8A46DEF13F06FEF13F079EFC7
:1026DC0013F0000E286E000E296E000E2A6E000EEE
:1026EC002B6EAAEF14F040503FC030F0316A305ED0
:1026FC00000E315A7F0E3024396E000E31203A6EA6
:10270C0028C034F029C035F02AC036F02BC037F081
:10271C00000E286E000E296E000E2A6E000E2B6E17
:10272C00000E3B6E000E3C6E000E3D6E000E3E6EBB
:10273C00000E406EDAEF13F04050D8B4A8EF13F04F
:10274C00AAEF13F0C1EF13F0D89034363536363685
:10275C003736D890283629362A362B363EAEB9EF86
:10276C0013F0BBEF13F0BCEF13F02880D8903B367E
:10277C003C363D363E362C50345C2D5035582E5060
:10278C0036582F503758D8A0CEEF13F0D0EF13F0A7
:10279C00D9EF13F03E8C2C50345E2D50355A2E5000
:1027AC00365A2F50375A402A190E4064E0EF13F076
:1027BC00E2EF13F0A2EF13F034503510361037104F
:1027CC00D8B4EBEF13F0EDEF13F005EF14F03B8002
:1027DC0005EF14F0D890283629362A362B363EAE23
:1027EC00FAEF13F0FCEF13F0FDEF13F02880D89004
:1027FC003B363C363D363E363906D8A03A062AAE34
:10280C000AEF14F00CEF14F0F0EF13F0000E406E22
:10281C003EAE13EF14F015EF14F039EF14F0FF0E79
:10282C003B14306EFF0E3C14316EFF0E3D14326EB5
:10283C007F0E3E14336E3050311032103310D8B43A
:10284C002AEF14F02CEF14F030EF14F0010E406E60
:10285C0039EF14F028A035EF14F037EF14F039EFFE
:10286C0014F02CEF14F04050D8B43FEF14F041EFBB
:10287C0014F065EF14F0010E2826000E29222A22EE
:10288C002B222BA04CEF14F04EEF14F065EF14F04C
:10289C0028C030F029C031F02AC032F02BC033F000
:1028AC003334333232323132303230C028F031C02E
:1028BC0029F032C02AF033C02BF0394A3A2A3ABEFA
:1028CC0070EF14F03A5008E13928D8A070EF14F0EA
:1028DC0072EF14F07DEF14F0000E3A6E3968000EB2
:1028EC00286E000E296E000E2A6E000E2B6E3ABE5C
:1028FC008AEF14F03A5006E13904D8B088EF14F09E
:10290C008AEF14F098EF14F0000E3A6E000E396E48
:10291C00000E286E000E296E000E2A6E000E2B6E15
:10292C00000E386E39C03FF03FA09FEF14F0A1EFBE
:10293C0014F0A4EF14F02A8EA5EF14F02A9ED89070
:10294C003F302B6E5BEF13F012009FC0D9FFA0C07D
:10295C00DAFFDECFF6FFDDCFF7FFF86A0800F5509F
:10296C00250AD8A4BCEF14F0BEEF14F052EF16F009
:10297C009FC0D9FFA0C0DAFFDE2A000EDD22000EB8
:10298C000001D26F000ED16FD1C0D5F0D2C0D6F0FD
:10299C00D369D4699FC0D9FFA0C0DAFFDECFF6FFA0
:1029AC00DDCFF7FFF86A0800F550076E086A9FEC58
:1029BC001CF007500001A96FA951D8B4E8EF14F02E
:1029CC00EAEF14F026EF15F09FC0D9FFA0C0DAFF94
:1029DC00DECF5CF0DDCF5DF0010E5C26000E5D22DB
:1029EC005CC0F6FF5DC0F7FFF86A0800F550076E93
:1029FC00086A9FEC1CF007500001AA6FAA51D8B4CA
:102A0C000AEF15F00CEF15F026EF15F09FC0D9FF6B
:102A1C00A0C0DAFFDECF5CF0DDCF5DF0020E5C26ED
:102A2C00000E5D225CC0F6FF5DC0F7FFF86A08007F
:102A3C00F550076E086A9FEC1CF007500001AB6F55
:102A4C00660EA919D8A42DEF15F02FEF15F070EF25
:102A5C0015F09FC0D9FFA0C0DAFFDECFF6FFDDCFA7
:102A6C00F7FFF86A0800F5CFACF09FC0D9FFA0C003
:102A7C00DAFFDE2A000EDD22A1C0D9FFA2C0DAFFE8
:102A8C00DFCF5CF0040EDE26DFCF5DF0000EDD2222
:102A9C005CC0D9FF5DC0DAFFDECFA5F0DECFA6F0BB
:102AAC00DECFA7F0DECFA8F09DC055F09EC056F04B
:102ABC00A5C057F0A6C058F0A7C059F0A8C05AF04E
:102ACC00ACC05BF016EC08F055C09DF056C09EF003
:102ADC006EEF16F0A90E016E000E026E270E036E3D
:102AEC00100E046E000E066E020E056ED6EC19F07A
:102AFC0001500210D8A485EF15F087EF15F019EFEF
:102B0C0016F09FC0D9FFA0C0DAFFDECF5CF0DDCF9E
:102B1C005DF0010E5C26000E5D225CC0F6FF5DC010
:102B2C00F7FFF86A0800F5CFACF0BF0E5C6EFF0E35
:102B3C005D6E9FC0D9FFA0C0DAFFDECFF6FFDDCF00
:102B4C00F7FFF86A0800F5505E6E5F6A5C505E260F
:102B5C005D505F225F500AE11A0E5E5CD8A0B9EF9F
:102B6C0015F0BCEF15F0010EBDEF15F0000E0001D5
:102B7C00A36FA46BA351A411D8B4C7EF15F0C9EF80
:102B8C0015F0E3EF15F0A1C0D9FFA2C0DAFFDFCF3B
:102B9C005CF0040EDE26DFCF5DF0000EDD225CC0A3
:102BAC00D9FF5DC0DAFFDECFA5F0DECFA6F0DECF19
:102BBC00A7F0DECFA8F0FBEF15F0A1C0D9FFA2C0A3
:102BCC00DAFFDFCF5CF0040EDE26DFCF5DF0000E07
:102BDC00DD225CC0D9FF5DC0DAFFDECFA5F0DECF11
:102BEC00A6F0DECFA7F0DECFA8F0020E9FC0D9FF73
:102BFC00A0C0DAFFDE26000EDD229DC055F09EC07F
:102C0C0056F0A5C057F0A6C058F0A7C059F0A8C000
:102C1C005AF0ACC05BF016EC08F055C09DF056C0F5
:102C2C009EF06EEF16F09FC0D9FFA0C0DAFFDECF8A
:102C3C00F6FFDDCFF7FFF86A0800F550250AD8A497
:102C4C002AEF16F02CEF16F044EF16F09FC0D9FFC8
:102C5C00A0C0DAFFDE2A000EDD22000E046E250E67
:102C6C00036E9DC005F09EC006F022EC1CF0000E19
:102C7C0000019E6F010E9D6F6EEF16F09FC0D9FF85
:102C8C00A0C0DAFFDE2A000EDD22000E00019E6FCE
:102C9C00000E9D6F6EEF16F09FC0D9FFA0C0DAFF3B
:102CAC00DECFF6FFDDCFF7FFF86A0800F550036EB4
:102CBC00046A9DC005F09EC006F022EC1CF09FC07B
:102CCC00D9FFA0C0DAFFDE2A000EDD223DEF16F0A0
:102CDC001200C7C051F0C8C052F0C9C053F0CAC0EE
:102CEC0054F041C051F042C052F043C053F044C0C4
:102CFC0054F0810E456EFF0E466E51C047F052C027
:102D0C0048F053C049F054C04AF0180E93EF16F037
:102D1C00D8904A32493248324732E82E8EEF16F0BC
:102D2C00475045244F6E000E4620506E50BEA8EF03
:102D3C0016F0505009E1170E4F5CD8A0A8EF16F012
:102D4C00AAEF16F0B4EF16F041C041F042C042F0C9
:102D5C0043C043F044C044F077EF17F050BEB9EFD6
:102D6C0016F0BBEF16F02BEF17F04FC045F0FF0E2F
:102D7C00466EFF0E476E7F0E486E000E496E45661E
:102D8C00CAEF16F0D2EF16F04934493248324732C6
:102D9C004632452EC5EF16F046C04BF047C04CF0FE
:102DAC0048C04DF049C04EF04B505114456E4C503C
:102DBC005214466E4D505314476E4E505414486E78
:102DCC004550461047104810D8A4EFEF16F0F1EF1D
:102DDC0016F0F3EF16F0AAEF16F051C045F052C002
:102DEC0046F053C047F054C048F0200E03EF17F0E4
:102DFC00D8904832473246324532E82EFEEF16F074
:102E0C004550461047104810D8B40FEF17F011EF8B
:102E1C0017F019EF17F04B5051264C5052224D50D1
:102E2C0053224E5054224B1C456E4C1C466E4D1C6E
:102E3C00476E4E1C486E4550511646505216475020
:102E4C005316485054166FEF17F051C045F052C04E
:102E5C0046F053C047F054C048F0200E3BEF17F03B
:102E6C00D8904832473246324532E82E36EF17F0CA
:102E7C004550461047104810D8A447EF17F049EFBB
:102E8C0017F053EF17F0000E516E000E526E000E3D
:102E9C00536E000E546E6FEF17F0D8905134456E90
:102EAC005234466E5334476E5434486E4550461077
:102EBC0047104810D8B465EF17F067EF17F06FEFB5
:102ECC0017F0000E516E000E526E800E536EBF0E38
:102EDC00546E51C041F052C042F053C043F054C044
:102EEC0044F01200096E0950D8B47FEF17F081EF4F
:102EFC0017F0A3EF17F004BE88EF17F086EF17F06A
:102F0C00A3EF17F001C005F002C006F003C007F0F4
:102F1C0004C008F0051E061E071E081E052A000E1A
:102F2C0006220722082205C00BF006C00CF007C0D1
:102F3C000DF008C00EF0ABEF17F001C00BF002C0A3
:102F4C000CF003C00DF004C00EF001500210031081
:102F5C000410D8A4B4EF17F0B6EF17F0C0EF17F0C9
:102F6C00000E016E000E026E000E036E000E046E5B
:102F7C0051EF18F0960E0A6ECAEF17F00A2AD89085
:102F8C000E320D320C320B32000E0B14056E000E8D
:102F9C000C14066E000E0D14076EFE0E0E14086E49
:102FAC000550061007100810D8A4DFEF17F0E1EF5A
:102FBC0017F0C4EF17F0EFEF17F00A2A010E0B26EB
:102FCC00000E0C220D220E22D8900E320D320C3235
:102FDC000B32000E0B14056E000E0C14066E000E58
:102FEC000D14076EFF0E0E14086E05500610071018
:102FFC000810D8A404EF18F006EF18F0E3EF17F060
:10300C000EEF18F00A06D8900B360C360D360E362D
:10301C000DBE13EF18F015EF18F01DEF18F0020E9F
:10302C000A601BEF18F01DEF18F008EF18F00AB04B
:10303C0022EF18F024EF18F025EF18F00D9ED89021
:10304C000A320AC005F0066A076A086A05C008F069
:10305C00076A066A056A05500B1206500C120750D7
:10306C000D1208500E120950D8B43FEF18F041EF72
:10307C0018F049EF18F004BE48EF18F046EF18F0BE
:10308C0049EF18F00E8E0BC001F00CC002F00DC011
:10309C0003F00EC004F01200033404340A6E0A501C
:1030AC00D8A45BEF18F05DEF18F067EF18F0000E86
:1030BC00016E000E026E000E036E000E046ED4EF55
:1030CC0018F001C005F002C006F003C007F004C000
:1030DC0008F0200E77EF18F0D8900832073206323D
:1030EC000532E82E72EF18F00550096E038EFF0EB4
:1030FC000116FF0E0216FF0E0316000E0416960E96
:10310C000A5E0ABE8EEF18F08CEF18F0A4EF18F0E0
:10311C000A50800A970FD8B096EF18F098EF18F075
:10312C009AEF18F05DEF18F0D890043203320232A7
:10313C0001320A3E9AEF18F0BCEF18F01F0E0A6429
:10314C00AAEF18F0ACEF18F0B4EF18F05DEF18F030
:10315C00D89001360236033604360A060A50D8A433
:10316C00BAEF18F0BCEF18F0AEEF18F00950D8B465
:10317C00C2EF18F0C4EF18F0CCEF18F0041E031EC9
:10318C00021E016C000E02220322042201C001F077
:10319C0002C002F003C003F004C004F01200000EE1
:1031AC002814306E000E2914316E800E2A14326EE3
:1031BC007F0E2B14336E3050311032103310D8A4D4
:1031CC00EAEF18F0ECEF18F0F4EF18F0000E286EA0
:1031DC00000E296E000E2A6E000E2B6E000E2C14A3
:1031EC00306E000E2D14316E800E2E14326E7F0E4A
:1031FC002F14336E3050311032103310D8A409EF25
:10320C0019F00BEF19F013EF19F0000E2C6E000EE5
:10321C002D6E000E2E6E000E2F6E2BAE18EF19F0C9
:10322C001AEF19F023EF19F0286C291ED8B0292AAF
:10323C002A1ED8B02A2A800E2B562FAE28EF19F052
:10324C002AEF19F033EF19F02C6C2D1ED8B02D2A63
:10325C002E1ED8B02E2A800E2F56000E281A000EC5
:10326C00291A000E2A1A800E2B1A000E2C1A000E88
:10327C002D1A000E2E1A800E2F1A2C50285C2D5051
:10328C0029582E502A582F502B58D8B050EF19F0DF
:10329C0052EF19F055EF19F0D89056EF19F0D8807D
:1032AC001200CBC00BF0CCC00CF0CDC00DF0CEC0DA
:1032BC000EF001C00BF002C00CF003C00DF004C006
:1032CC000EF00BC005F00CC006F00DC007F00EC0E0
:1032DC0008F0180E77EF19F0D89008320732063242
:1032EC000532E82E72EF19F00550096E0A6A095082
:1032FC000A10D8A484EF19F086EF19F0A6EF19F094
:10330C00D8900B34056E0C34066E0D34076E0E34EB
:10331C00086E0550061007100810D8A498EF19F085
:10332C009AEF19F0A0EF19F0000E026E020E016E6A
:10333C00D5EF19F0000E026E030E016ED5EF19F0E9
:10334C0009280A10D8A4ADEF19F0AFEF19F0D1EF9E
:10335C0019F00BC005F00CC006F00DC007F00EC044
:10336C0008F0090ED8900536063607360836E82ED2
:10337C00B8EF19F00550061007100810D8B4C9EFB3
:10338C0019F0CCEF19F0010ECDEF19F0000E016E13
:10339C00026AD5EF19F0000E026E040E016E1200D7
:1033AC0001C008F002C009F003C00AF004C00BF021
:1033BC000506D8A00606052806E10628D8A4E9EFDC
:1033CC0019F0EBEF19F0F8EF19F0000E026E000E89
:1033DC00016E43EF1AF0084A092A0A4A0B2A05061D
:1033EC00D8A0060608C0D9FF09C0DAFFDF50D8B450
:1033FC0002EF1AF004EF1AF031EF1AF00AC0F6FFE0
:10340C000BC0F7FFF86A0800F5500009D8B411EFAB
:10341C001AF013EF1AF031EF1AF005500610D8B469
:10342C001AEF1AF01CEF1AF031EF1AF008C0D9FF9E
:10343C0009C0DAFFDF50076E0AC0F6FF0BC0F7FFBA
:10344C00F86A0800F5500718D8B42FEF1AF031EFCE
:10345C001AF0F1EF19F008C0D9FF09C0DAFFDF50FC
:10346C00076E0AC0F6FF0BC0F7FFF86A0800F550AC
:10347C00075C016E026AD8A0020612000FEC1EF067
:10348C000A0EF8EC1DF05CEC1EF025EC1EF00009A9
:10349C00D8B453EF1AF055EF1AF04BEF1AF02FEC9B
:1034AC001EF001C0C5F002C0C6F0000E136E000E77
:1034BC00146EA00E156E400E166EC5C001F0C6C07F
:1034CC0002F0036A046A000E78EC17F001C00FF0EA
:1034DC0002C010F003C011F004C012F0C9EC10F0DF
:1034EC000FC028F010C029F011C02AF012C02BF028
:1034FC00000E2C6EC00E2D6E7F0E2E6E440E2F6E97
:10350C00DEEC12F028C0C1F029C0C2F02AC0C3F012
:10351C002BC0C4F0010E0001B56F100EB66FC1C008
:10352C00B7F0C2C0B8F0C3C0B9F0C4C0BAF0D5ECA3
:10353C001DF0020E0001C06F040EBF6FBA0EE82E14
:10354C00FED7BF2FFCD7C02FFAD700F049EF1AF0E7
:10355C0000EF00F00001D5A1B6EF1AF0B8EF1AF0A9
:10356C00C2EF1AF015C00CF016C00DF013C00EF01F
:10357C0014C00FF021EC1DF018BEC7EF1AF0C9EF04
:10358C001AF0CFEF1AF017C01CF018C01DF0D3EFD3
:10359C001AF0000E1D6E000E1C6E000E1B6E000E3F
:1035AC001A6EE5EF1AF0000E046E200E036E13C0B7
:1035BC0005F014C006F022EC1CF01A4A1B2A1C5011
:1035CC001A5C1B50800A196E1D50800A1958D8A01D
:1035DC00F2EF1AF0F4EF1AF0D9EF1AF00001D5B1AE
:1035EC00FAEF1AF0FCEF1AF006EF1BF015C00CF016
:1035FC0016C00DF013C00EF014C00FF021EC1DF02E
:10360C0015C001F016C002F0BAEC1DF01C500124DC
:10361C00136E1D500220146E1200000E066E04BEB6
:10362C001CEF1BF01AEF1BF022EF1BF0036C041EB7
:10363C00D8B0042A010E066E02BE29EF1BF027EF4C
:10364C001BF02FEF1BF0016C021ED8B0022A010EEA
:10365C00061A000E086E000E076E03500410D8B444
:10366C003AEF1BF03CEF1BF064EF1BF0010E056E04
:10367C0044EF1BF0D89003360436052A04AE49EF0C
:10368C001BF04BEF1BF040EF1BF0D89007360836C1
:10369C000350015C04500258D8A057EF1BF059EFAF
:1036AC001BF05EEF1BF00350015E0450025A0780C2
:1036BC00D89004320332052E4BEF1BF00650D8B4D1
:1036CC006AEF1BF06CEF1BF070EF1BF0076C081E21
:1036DC00D8B0082A07C001F008C002F01200000E92
:1036EC00066E02BE7EEF1BF07CEF1BF084EF1BF02E
:1036FC00016C021ED8B0022A010E066E04BE8BEFBE
:10370C001BF089EF1BF08FEF1BF0036C041ED8B07D
:10371C00042A03500410D8B496EF1BF098EF1BF05A
:10372C00BCEF1BF0010E056EA0EF1BF0D89003361A
:10373C000436052A04AEA5EF1BF0A7EF1BF09CEF97
:10374C001BF00350015C04500258D8A0B0EF1BF0E2
:10375C00B2EF1BF0B6EF1BF00350015E0450025A9F
:10376C00D89004320332052EA7EF1BF00650D8B4C4
:10377C00C2EF1BF0C4EF1BF0C8EF1BF0016C021E74
:10378C00D8B0022A01C001F002C002F01200000EF3
:10379C000114096E000E02140A6E800E03140B6ED7
:1037AC007F0E04140C6E09500A100B100C10D8A4C8
:1037BC00E2EF1BF0E4EF1BF0ECEF1BF0000E016EE0
:1037CC00000E026E000E036E000E046E000E051449
:1037DC00096E000E06140A6E800E07140B6E7F0E17
:1037EC0008140C6E09500A100B100C10D8A401EF21
:1037FC001CF003EF1CF00BEF1CF0000E056E000E1E
:10380C00066E000E076E000E086E055001180FE1D3
:10381C00065002180CE10750031809E1085004186F
:10382C00D8B41BEF1CF01DEF1CF020EF1CF0D8904F
:10383C0021EF1CF0D880120005500610D8B429EFE7
:10384C001CF02BEF1CF034EF1CF005500610D8A424
:10385C0032EF1CF034EF1CF039EF1CF0035048EC45
:10386C001EF06CEF1CF020EE04F00550D92606502B
:10387C00DA22DE50DE10D8B446EF1CF048EF1CF014
:10388C0063EF1CF020EE04F00550D9260650DA2226
:10389C0010EE02F00550E1260650E222DE50E65C06
:1038AC00E650800A0B6EDE50800A0B58D8B061EFE0
:1038BC001CF063EF1CF06CEF1CF020EE02F00550D6
:1038CC00D9260650DA22DE2A000EDD221200AFC005
:1038DC00B3F0B0C0B4F0000E0001D06F000ECF6F8B
:1038EC008BEF1CF0ADC09DF0AEC09EF0B30E9F6F81
:1038FC00000EA06FB1C0A1F0B2C0A2F0ABEC14F0FE
:10390C0000019D51CF279E51D023B3C0F6FFB4C008
:10391C00F7FFF86A0800F5500009D8A498EF1CF0DE
:10392C009AEF1CF078EF1CF0CFC0ADF0D0C0AEF029
:10393C001200BF0E096EFF0E0A6E07C00BF008C016
:10394C000CF009500B260A500C220C500AE11A0EEE
:10395C000B5CD8A0B4EF1CF0B7EF1CF0010EB8EF65
:10396C001CF0000E0D6E0E6A0D500E10D8B4C1EF87
:10397C001CF0C3EF1CF0CAEF1CF0200E0710076EF2
:10398C000850086ECEEF1CF007C007F008C008F016
:10399C00120003C007F004C008F001C009F002C017
:1039AC000AF00750056E0850066E074A082A05C033
:1039BC00F6FF06C0F7FF000EF86E09C0D9FF0AC06B
:1039CC00DAFF094A0A2A0F0EF76403D00800F550F3
:1039DC0005D0F6CFE1FFF7CFE2FFE750DF6EDF5007
:1039EC00D8A4FBEF1CF0FDEF1CF0D7EF1CF012007D
:1039FC00000E2C1A000E2D1A000E2E1A800E2F1AE5
:103A0C0028C001F029C002F02AC003F02BC004F03A
:103A1C002CC005F02DC006F02EC007F02FC008F00A
:103A2C0069EC0EF001C028F002C029F003C02AF0A6
:103A3C0004C02BF01200000E126E000E116E32EF4D
:103A4C001DF010C003F0046A0EC005F00FC006F0A4
:103A5C0022EC1CF0114A122A11500C24D96E12506F
:103A6C000D20DA6EDF50106E1050D8A440EF1DF010
:103A7C0042EF1DF027EF1DF01200080EB86E900EED
:103A8C00AB6E240EAC6ECF0EAF6E000EB06E000E91
:103A9C00016E000E026E52EC1EF0000E016E000E56
:103AAC00026E4DEC1EF0000E016E000E026E57EC15
:103ABC001EF0000E0001D96F1200000E8D6E000E6C
:103ACC008C6E000E896E000E8A6E000E8B6E070EC9
:103ADC00966E92689368BF0E946E95680F013B6961
:103AEC003C0E3A6F3F0E396F070E3C6F2F0E386F3E
:103AFC00000E616EF18E1200BF0E036EFF0E046E8F
:103B0C0001C005F002C006F0035005260450062241
:103B1C0006500AE11A0E055CD8A097EF1DF09AEF3B
:103B2C001DF0010E9BEF1DF0000E016E026A1200DB
:103B3C000150021003100410D8B4A7EF1DF0A9EF28
:103B4C001DF0B1EF1DF0000E011A000E021A000E4E
:103B5C00031A800E041A01C001F002C002F003C067
:103B6C0003F004C004F0120001C003F002C004F022
:103B7C00C2EF1DF0014A022A01C0D9FF02C0DAFFD0
:103B8C00DF50D8A4CCEF1DF0CEEF1DF0C0EF1DF030
:103B9C000350015C016E04500258026E1200B70E05
:103BAC000001BD6F000EBE6F000EAD6F000EAE6F4C
:103BBC00B5C0AFF0B6C0B0F0BD0EB16F000EB26FB5
:103BCC006DEC1CF0120001EE00F0500EEE6AE806EF
:103BDC00FDE100EEC7F0130EEE6AE806FDE1000110
:103BEC0044EF1AF0026E02C001F001460146C250C9
:103BFC000118830B0118C26EC2801200016E9EA8C0
:103C0C000AEF1EF00CEF1EF005EF1EF001C0ADFF29
:103C1C00120063EC1DF041EC1EF01AEC1EF039ECB6
:103C2C001EF043EC1DF01200000EC16EA10EC06E12
:103C3C00000EC36E000EC46E010EC26E1200C2A244
:103C4C002AEF1EF02DEF1EF0010E2EEF1EF0000ECF
:103C5C001200C450046E036AC3500324016E000E9C
:103C6C000420026E1200000E0F01546F000E556FEF
:103C7C00000E566F1200620ED36E040ED26E000E42
:103C8C009B6E1200026E025004EC1EF0120001C07A
:103C9C00DCF002C0DDF0120001C0DEF002C0DFF08B
:103CAC00120001C0DAF002C0DBF01200C282120076
:020000040020DA
:08000000FFFFFFFFFFFFFFFF00
:020000040030CA
:0E000000FF281E3CFFBD81FF0FC00FE00F4028
:00000001FF
